:020000041008E2
:1000000000770408A95008100D00000009510810DD
:10001000095108100951081009510810000000008A
:10002000000000000000000000000000E53808109B
:1000300005510810000000007D3908108D390810A6
:1000400005510810055108100551081005510810F8
:1000500005510810055108100551081005510810E8
:1000600005510810055108100551081005510810D8
:1000700005510810055108100551081005510810C8
:1000800005510810055108100551081005510810B8
:1000900005510810055108100551081005510810A8
:1000A0000551081005510810055108100551081098
:1000B0000551081059530810055108100551081032
:1000C0000551081005510810055108100551081078
:1000D0000551081005510810055108100551081068
:1000E0000551081005510810055108100551081058
:1000F0000551081005510810055108100551081048
:100100000551081005510810055108100551081037
:100110000551081005510810055108100551081027
:100120000551081005510810055108100551081017
:100130000551081005510810055108100551081007
:1001400005510810055108100551081005510810F7
:1001500005510810055108100551081005510810E7
:1001600005510810055108100551081005510810D7
:1001700005510810055108100551081005510810C7
:1001800005510810055108100551081005510810B7
:1001900005510810055108100551081005510810A7
:1001A0000551081005510810055108100551081097
:1001B0000551081005510810055108100551081087
:1001C0000551081005510810055108100551081077
:1001D0000551081005510810055108100551081067
:1001E0000551081005510810055108100551081057
:1001F0000551081005510810055108100551081047
:100200000551081005510810055108100551081036
:100210000551081005510810055108100551081026
:100220000551081005510810055108100551081016
:100230000551081005510810055108100551081006
:1002400005510810055108100551081005510810F6
:1002500005510810055108100551081005510810E6
:1002600005510810055108100551081005510810D6
:1002700005510810055108100551081005510810C6
:1002800005510810055108100551081010B5054C0E
:10029000237833B9044B13B10448AFF30080012332
:1002A000237010BD880901080000000080AE08100E
:1002B00008B5034B1BB103490348AFF3008008BDE9
:1002C000000000008C09010880AE0810154B002BBF
:1002D00008BF134B9D46A3F5803A00218B460F467D
:1002E0001348144A121A08F063FD0F4B002B00D07C
:1002F00098470E4B002B00D09847002000210400A7
:100300000D000D48002802D00C4802F091FE08F0C4
:100310009DFC2000290003F019FA02F086FE00BFC0
:10032000000008000077040800000000A93608104B
:1003300088090108EC6A010831300810000000004B
:10034000002070470020704703689B6A18470368C5
:10035000DB6A18474FF0FF307047838803F00702CD
:10036000012310B59340046809B9636010BDA36010
:10037000FCE710B5036804469B6C984794F8BC30C2
:100380003BB9C4F8C03023682046DB6C9847002096
:1003900010BDD4F8C030013BC4F8C030002BF2D1FE
:1003A00084F8BC3000220023C4E90223EBE74FF4B9
:1003B000007000217047D0E902135B02480243EA53
:1003C000D1517047004870471896081080F8BD104A
:1003D000704770B5013100240646891A20468C42C8
:1003E0000CD01519A6EBD50305F00705DB7B2B41D7
:1003F00003F00103A34018430134F0E770BD9430CB
:1004000003F020B9943003F033B900002DE9F34133
:1004100098461C4B03601646002300220446C0E9A0
:10042000022310300D460A9F01F091FA4FF0FF337E
:100430003246009329464346002504F18C0604F118
:10044000380000F04FFFBDF920103046C4E92355B5
:1004500002F008F804F1940003F0ECF8304684F858
:10046000BC50C4F8C0500121FFF777FF064B25713F
:10047000C4E90C3720464FF40073C4F8B83002B01A
:10048000BDE8F08124960810A08601002DE9F84F00
:10049000D0F8B87092469B4606463A46002350462E
:1004A000594608F021FF1343DDE90A8917D13A467E
:1004B00000234046494608F017FF13430FD1336825
:1004C0001AEB08049B6B30464BEB09059847A94291
:1004D00008BFA0422CBF01200020BDE8F88F0020FB
:1004E000FBE7000008B5094B416B9942024600F159
:1004F000380003D800F066FF002008BD536319469A
:1005000000F060FF6FF01500F7E700BF40787D0155
:1005100038B50368044615469B6C984765632046CA
:10052000FFF7E0FF23680546DB6C20469847284626
:1005300038BD000010B50B4B036090F8BC3004468A
:100540000BB1FFF716FF04F1940003F0A5F804F1D6
:10055000380000F0BFFF04F1100001F072F92046EE
:1005600010BD00BF2496081010B50446FFF7E2FF47
:10057000204602F0C5FE204610BD73B501F03F03D2
:1005800043F040038DF80030130E8DF80130130C4A
:100590008DF80230130A0D468DF803308DF80420D3
:1005A00019B1082921D0FF2300E095238DF80530EB
:1005B000002600F138041DF806102046013600F030
:1005C00050FF062EF7D10C2D03D1FF21204600F05D
:1005D00048FF1025FF21204600F043FF030601D508
:1005E000013DF7D1C0B202B070BD8723DEE770B520
:1005F00000F11004054620460E4601F097F920460A
:1006000001F02FF93835FF21284600F02AFF8642F5
:10061000204603D101F052F9012070BD01F07DF9AF
:10062000B0F5967FEFDB204601F048F90020F4E7B3
:1006300070B500F11004054620460E4601F076F92B
:10064000204601F00EF93835FF21284600F009FF59
:10065000C0B2FF28204603D101F030F9012070BD5F
:1006600001F05BF9B042EFDB204601F027F90020F2
:10067000F5E770B50E46002400F13805B44205D008
:10068000FF21284600F0EDFE0134F7E770BD0000C1
:1006900073B50D46FE2104461646FFF7A8FF90B13C
:1006A0000022383411462B460096204600F0E9FE21
:1006B000FF21204600F0D5FEFF21204600F0D1FEAC
:1006C000002002B070BD0148FBE700BF70ECFFFFE7
:1006D000F7B500F1380405460E46204611461F4680
:1006E00000F0BFFE002300933A463146204600F05A
:1006F000C8FE6FF07F41204600F0B3FE4FF0FF319F
:10070000204600F0AEFEFF21204600F0AAFE42F295
:10071000107104462846FFF78BFF04F01F0003B05A
:10072000F0BD38B500F138050446284600F085FDD7
:10073000FF21284600F095FE04F18C000021BDE861
:100740003840FFF70ABE38B500F1380405462046A8
:1007500000F073FD296B204600F034FE0022204695
:10076000082100F011FE2046FF2100F0A4FE05F153
:100770008C000121FFF7F1FD28460A21FFF779FFE0
:100780002046BDE8384000F04BBD10B50446383473
:1007900001218C30FFF7E1FD2046FF2100F061FED2
:1007A0002046BDE8104000F03BBD00002DE9F047B9
:1007B0000C46064691469A46089FFFF7B2FF0C2C5E
:1007C00004D042F210713046FFF732FF4FF00308B9
:1007D000BAF1000F09D0372100223046FFF7CDFED5
:1007E00042F210713046FFF723FF4A462146304659
:1007F000FFF7C3FEFF28054670D1B8F10108E7D125
:1008000007B138603046FFF7C0FFDFF8EC804046A4
:10081000BDE8F087420709D53046FFF7B6FF082C40
:1008200001D104233371DFF8D480F0E710F0120F08
:100830001FD12F4B10F0600F14BF98464FF00008E7
:100840000D2C41D018DC082C35D00C2C36D0002FC4
:1008500042D1093CE4B2102C07D8264B23FA04F409
:10086000E30702D5B8F1000FD1D03046FFF78DFF76
:10087000CDE7DFF88C80E3E7262C1FD03A2CE6D1B9
:1008800006F13809FF21484600F0EBFDFF2105463F
:10089000484600F0E6FD2D0645EA0045FF214846A2
:1008A00000F0DFFDFF218246484600F0DAFD0543F7
:1008B00045EA0A25CBE702233371E1E742F21071E2
:1008C0003046FFF7B5FEC2E7FF2106F1380000F021
:1008D000C8FD002FC9D005463D60BAE707B13860B2
:1008E000010797D53046FFF750FFDFF818808EE7F5
:1008F00075ECFFFF01A3010073ECFFFF76ECFFFF37
:100900006EECFFFF6FECFFFF2DE9F347DDE90A67AF
:10091000CDE90067044690461D46FFF7B7FD002865
:1009200041D0236820469B6C984794F8BC3043B96B
:1009300023681E4DDB6C20469847284602B0BDE870
:10094000F0872379B6F5007947F1FF3A032B08D1F8
:100950004FEA592343EACA534FEA5828994648EACE
:10096000C55800230093424620212046FFF71EFF72
:10097000054620B123682046DB6C9847DDE70090F0
:10098000034608EB090221212046FFF70FFF054629
:100990000028EFD100900346024626212046FFF7AB
:1009A00005FF0546E6E7024DC7E700BF74ECFFFF11
:1009B00075ECFFFF1FB504AA002342F8043D08218F
:1009C00000924FF4D5720446FFF7F0FE58B9237930
:1009D000022B08D1039BC3F30B03B3F5D57F1EBFD6
:1009E00004230248237104B010BD00BF71ECFFFF67
:1009F0007FB50546052403AE00231A461946009626
:100A00002846FFF7D3FE039B012B04D0012002F000
:100A1000DFFD013CF0D1039804B070BD2DE9F04337
:100A2000002380F8BD3085B00446FFF78CFE2046D9
:100A3000FFF7DEFF01285DD12046FFF7BBFF05462B
:100A400010B12D4B98420FD1002303AE00961A46E9
:100A50003A212046FFF7AAFE054628B9039BD90292
:100A600006D40423254D2371284605B0BDE8F08344
:100A7000237904F11007022B384614BF4FF0000908
:100A80004FF0804900F0EDFE42F20F7801234A4614
:100A9000009629212046FFF789FE039BDA070546C9
:100AA00004D5384600F039FF4045EFDD384600F008
:100AB00005FF0DB9039B13B104232371D4E72379F8
:100AC000022B15D100962B462A463A212046FFF7E5
:100AD0006DFE20B9039B5B0001D503232371002326
:100AE00000931A463B212046FFF760FE0546BBE710
:100AF0000123F3E7024DB7E776ECFFFF71ECFFFF50
:100B000073ECFFFF2DE9F04F85B014461D46DDE97B
:100B10000E23CDE9022303689B6A82468B469847E1
:100B200002460B462046294608F0DEFB134304D05C
:100B3000404C204605B0BDE8F08FDAF80030504652
:100B40009B6A984702460B46DDE9020108F0CCFBA0
:100B50001343EDD1DDE90289DAF8003018EB04081F
:100B60009B6B504649EB05099847494508BF4045EE
:100B7000DED3DAF8003050469B6C98479AF8BC30C8
:100B800033B9DAF800302C4CDB6C50469847D0E78C
:100B9000029B5E0A039B46EAC3569AF80430032B75
:100BA00002BF630A43EAC5531C460027012E009783
:100BB0001CD122463B4618215046FFF7F7FD04465C
:100BC00028B1DAF800305046DB6C9847B1E74FF4B3
:100BD0000073FE2259465046FFF77AFD174B052851
:100BE00018BF1C465046FFF7D0FDEAE70123324606
:100BF00017215046FFF7DAFD224600973B461921A0
:100C00005046FFF7D3FD04460028DAD14FF40073B5
:100C1000FC2259465046FFF75BFD052803D1013EF3
:100C20000BF5007BF2D1FD210AF1380000F019FC30
:100C3000D8E700BF75ECFFFF74ECFFFF6DECFFFF22
:100C40002DE9F74F1D4603685B6A144682468B46C2
:100C5000DDE90C67984702460B462046294608F016
:100C600043FB134304D0394C204603B0BDE8F08F5A
:100C7000DAF8003050465B6A984702460B46304629
:100C8000394608F031FB1343EDD1DAF8003014EBAC
:100C900006089B6B504645EB07099847494508BF36
:100CA0004045E0D3DAF8003050469B6C98479AF8FC
:100CB000BC302BB9DAF800305046DB6C9847D2E7ED
:100CC0009AF80430032B08BF630A4FEA562808BF7E
:100CD00043EAC55348EAC75808BF1C46B8F1010F9C
:100CE0004FF00003224600938CBF12211121504681
:100CF000FFF75CFD044628B1DAF800305046DB6CA3
:100D00009847B1E7B8F1000F0CD04FF40072594684
:100D10005046FFF7BDFC20B90BF5007B08F1FF380A
:100D2000F0E70B4C5046FFF730FD00234FF4007204
:100D3000BB4208BFB242DFD2002300931A460C2107
:100D40005046FFF733FD0446D6E700BF75ECFFFFC2
:100D500070ECFFFFF8B50C46FE2105461746FFF77D
:100D600046FC60B1274405F13806BC424FF0FF0154
:100D7000304609D000F075FB04F8010BF5E7284672
:100D8000FFF703FD0648F8BD00F06BFBFF2130467E
:100D900000F067FB2846FFF7F8FC0020F3E700BFF0
:100DA00070ECFFFFF0B587B0002400942346224684
:100DB00009210646FFF7FAFC074600284FD110220A
:100DC00002A93046FFF7C6FF0546002846D17E221D
:100DD0007F2102A8FFF7FDFA18B1012836D02C4672
:100DE0003DE03E22492102A8FFF7F3FA2F220446F4
:100DF000312102A8FFF7EDFA50220546532102A83F
:100E0000FFF7E7FA023501340123AC4003FA00F0A2
:100E1000A4FB0001440A2E2244EAC1544D0A02A850
:100E20001146FFF7D6FA20B14FF40073C6F8B83078
:100E300008E027222D2102A8FFF7CBFA013040025B
:100E4000C6F8B8002046294607B0F0BD302245213B
:100E500002A8FFF7BEFA01308402E5E73C462546CA
:100E6000F0E737B5036804469B6C984794F8BC30AC
:100E70000BB9C4F8C030D4F8C0300133012BC4F82A
:100E8000C0302FD12046FFF7C9FD051E0CBF01233E
:100E9000002384F8BC3004D023682046DB6C9847DC
:100EA0000DE02046FFF77EFF50EA0103C4E902018E
:100EB00008D123682046DB6C98476FF47A65284692
:100EC00003B030BD00952B464FF400721021204630
:100ED000FFF76CFC0028ECD12046FFF703FB05462A
:100EE0000028D9D123682046DB6C98470025E6E727
:100EF0007047704705F062BA05F056BA05F060BA5F
:100F000005F061BA05F062BA70B5054604689CB98F
:100F10000A4E306818B14FF0FF3103F0B7FB2C6870
:100F200034B915F1080402D0204602F083FB2C608E
:100F3000306808B103F0C2FB204670BD202A0108CA
:100F400070B50D4E05463046FFF7DEFF02F07AFB26
:100F5000284605F0E1F90446284605F02FFA02F08C
:100F6000CDF968603046FFF7CFFF02F081FB201C0F
:100F700018BF0120404270BDA809010838B50546D8
:100F80000B48FFF7C1FF02F05DFB284605F0C6F9EC
:100F9000003018BF01204442686808B102F0B2F97D
:100FA0000348FFF7B1FF02F063FB204638BD00BFE6
:100FB000A80901082DE9F0410C4C054620460F46D2
:100FC00016469846FFF7A0FF02F03CFB43463A4620
:100FD0003146284601F018FA05462046FFF794FFEF
:100FE00002F046FB2846BDE8F08100BFA8090108D1
:100FF0002DE9F74F154699460746884605F0DEF974
:101000000646384605F0DFF98246384605F0D8F93D
:10101000B5FBF6F306FB1354002C5FD1B8F1000FBB
:101020005CD005EB09038244534557D82D48FFF7A0
:101030006BFF02F007FB2346B9F1000F43D0002BF2
:101040003FD12946384605F0AFF9B5FBF0F400FB77
:101050001454041B4C4528BF4C4618F0030F01D113
:10106000B44226D2B44228BF34462246414678686C
:1010700007F093FEB44205D27868321BFF2120446A
:1010800007F096FE7B680193B3464FF0100A5B466B
:10109000019A2946384605F04DF9034620B1BAF1C8
:1010A000010AF4D14FF0FF33A9EB04092544A04411
:1010B000C2E7B4FBF6F406FB04FB5C46CDF8048003
:1010C000E3E74FF0FF3307480193FFF71DFF02F0FE
:1010D000CFFA019B184603B0BDE8F08F4FF0FF3305
:1010E000F8E700BFA80901082DE9F0410D461646B2
:1010F000074605F068F90446384605F061F92044D2
:10110000AC19A04204D24FF0FF342046BDE8F08174
:101110001BD81748FFF7F8FE02F094FA00240EB32C
:10112000F4B94FF010082946384605F0F9F804469E
:1011300020B1B8F10108F6D14FF0FF342946384606
:1011400005F032F9361A0544E9E72146384605F03C
:101150002BF9B4FBF0F303FB10400028D9D0D2E701
:101160004FF0FF340248FFF7CFFE02F081FACCE7E0
:10117000A8090108C36810B504460BB19B689847DD
:10118000204610BDC36810B504460BB19B68984754
:10119000204610BD884238B504460D460FD0FFF7F3
:1011A000F1FF64B110220021204607F001FEEB6838
:1011B0001BB15B68294620469847EB68E3602046F0
:1011C00038BD30B4446801466CB1D0E9032303F064
:1011D000010502B93DB15B10E0180DB1E3589A5812
:1011E000896830BC104730BC7047000070B50B4DAB
:1011F0000646286818B14FF0FF3103F047FA34680B
:1012000034B916F1080402D0204602F013FA346013
:10121000286808B103F052FA204670BD202A010860
:1012200008B54368D3F8B00018B903F1B000FFF770
:10123000DDFFBDE8084002F01BBA08B54368D3F8EB
:10124000B00018B903F1B000FFF7D0FFBDE80840C7
:1012500002F0F8B938B5054601F08CFD074B1B6864
:10126000002B08DD064C2078A84218BF002401F0AE
:101270008BFD204638BD0024F9E700BFC00A0108F5
:10128000D8090108044A1368591C1160034AE82070
:1012900000FB0320704700BFC00A0108D8090108FD
:1012A00038B500250823C0E911350D4BC364FF2371
:1012B00080F8305080F83150A0F85030044601F0EA
:1012C00059FD2846FFF7C6FF0546606018B9FFF7CD
:1012D000D9FF60600570BDE8384001F055BD00BF22
:1012E00040420F002DE9F04104461E46124B0360B8
:1012F0000025124BE06088461746C0E904551022CD
:1013000085618360C5612946203007F051FD04F1F5
:101310003C00BDF918302387A4F83280A786E68602
:10132000E5634FF0FF31456001F09CF82046FFF780
:10133000B7FF2046BDE8F0817C960810C311081065
:1013400037B504464068D0F8E030A3421AD0B4F96B
:101350003850B4F93630B4F93420B4F9321000956D
:10136000043005F061FD60680023D4E911120430F7
:1013700005F010FE6068E16C043005F031FE636832
:10138000C3F8E04003B030BD036870B504461B6984
:101390000D46164698476068D0F8E030A342C4E98D
:1013A00011560BD1002332462946043005F0F2FDD8
:1013B000236820465B69BDE8704018472046FFF768
:1013C000BFFFF5E7036870B504461B690D469847F3
:1013D0006068E564D0F8E030A34209D129460430C2
:1013E00005F0FEFD236820465B69BDE870401847A4
:1013F0002046FFF7A5FFF5E7B0F940305A1C08D0AA
:1014000003F007020123C06B934009B943607047A2
:101410008360704738B5036804461B69984794F9A0
:1014200051506B1C84F8513045B92046FFF788FFB6
:1014300029462046BDE83840FFF7DEBF38BD10B56D
:1014400090F85130013B5BB2044680F8513013B93B
:101450000121FFF7D1FF236820465B69BDE81040FA
:10146000184738B504460D46FFF7D4FF6068294693
:10147000043005F061FE05462046FFF7E0FF2846F0
:1014800038BDF7B504461F460D461646FFF7C2FFA6
:1014900094F8503060680193089B009329463B46BE
:1014A0003246043005F0B4FD05462046FFF7C7FF7D
:1014B000284603B0F0BD70B5036804461B690D46AD
:1014C0009847236884F8505020465B69BDE8704017
:1014D0001847000010B50C4B03600446FFF7ADFE43
:1014E0006368D3F8E020A24204BF0022C3F8E020E2
:1014F0002046FFF795FE04F12000FFF73BFEE06970
:1015000001F00EFA204610BD7C96081010B5044676
:10151000FFF7E0FF204601F0F3FE204610BD6FF01C
:101520001500704703681B69184703689B691847D3
:1015300003689B6A184700290CBF6FF01800002051
:101540007047012070476FF0150070476FF015006D
:10155000704711207047704700F086B8A0F1D8009E
:10156000FFF7FABF00F083B8A0F1D800FFF7FABF89
:10157000F03002F067B8A0F1D800FFF7F9BFF03003
:1015800002F076B8A0F1D800FFF7F9BF0C4B10B508
:1015900003F10802026003F1280294330446C0F804
:1015A000D820C0F8DC30F03002F076F804F1D80032
:1015B00001F024FB204600F001F9204610BD00BFD9
:1015C00094960810A0F1D800E0E7A0F1DC00DDE778
:1015D00010B50446FFF7DAFF204601F091FE2046E1
:1015E00010BDA0F1D800F3E7A0F1DC00F0E70000A7
:1015F00038B504461D46049B00F040F8294604F126
:10160000D80001F0D3FA084B03F10802226003F17D
:1016100028029433C4F8D820C4F8DC3004F1F00078
:1016200002F008F8204638BD94960810704700EB89
:101630000113B433DA6812B11268184610477047C4
:1016400030B4446801466CB1D0E9032303F00105CE
:1016500002B93DB15B10E0180DB1E3589A588968A2
:1016600030BC104730BC7047403005F023BA10B58D
:1016700040300C4605F038FA204610BD2DE9F04FF9
:1016800004469B462D4B036000252D4BA06085B082
:10169000436089469246C0E90355456185610577F7
:1016A000457729461022203007F082FB04F14006DE
:1016B0002946102204F1300007F07AFB04F1B40847
:1016C00029467422304607F073FB04F1C40729460B
:1016D0001022404607F06CFB29461022384607F0DE
:1016E00067FB10222946C4F8D4B0684607F060FBB7
:1016F00069464046FFF74EFD6846FFF743FD10225E
:101700002946684607F054FB69463846FFF742FD14
:101710006846FFF737FD52464946304605F028F93E
:10172000D4F8D410304605F0ABF9304622460549CE
:1017300005F0E6F9204605B0BDE8F08F38970810AF
:10174000411608102F1608102DE9FF4103680446C2
:10175000164688461B6804EB06159847B43501F019
:1017600009FBD8F80C20EB6804F14007A2B10BB9D3
:1017700001F0C2FE41462846FFF70CFD012231462A
:10178000384605F0E1F901F0FFFA236820465B686E
:10179000984704B0BDE8F0810BB101F0CDFE1022F6
:1017A0000021684607F004FB69462846FFF7F2FC73
:1017B0006846FFF7E7FC0022E1E700007FB51B4B1E
:1017C0000360044610220021684607F0F1FA002267
:1017D00069462046FFF7B8FF6846FFF7D3FC1022A2
:1017E0000021684607F0E4FA012269462046FFF727
:1017F000ABFF6846FFF7C6FC14F1B40608D004F14D
:10180000D405AE4204D0103D2846FFF7BBFCF8E7F4
:1018100004F13000FFF7AEFC04F12000FFF7AAFC52
:10182000A06901F07DF8204604B070BD389708101B
:1018300010B50446FFF7C2FF204601F061FD2046C7
:1018400010BD10B5044601F095FA23681BB1237F43
:101850000BB101F071FE0023236001F095FA2046E0
:1018600010BD10B5044601F085FA236853B9237FF3
:101870000BB101F041FEA06901F02EF8C4E90201AC
:1018800001232360BDE8104001F07EBAF8B504469C
:1018900001F070FA236873B1A06901F01DF8D4E972
:1018A0000245041B61EB050526462F4601F06CFA44
:1018B00030463946F8BD00260027F7E72DE91848DD
:1018C000044601F057FA2046FFF7E0FFD4E904236D
:1018D00010EB020B41EB030C2368C4E904BC1BB101
:1018E000237F0BB101F028FE00232360BDE81848D8
:1018F00001F04ABA2DE9F041064601F03BFA3046C4
:10190000D6E90478FFF7C2FF3C1848EB010501F067
:101910003BFA20462946BDE8F08108B5FFF7EAFF0B
:101920004FF47A72002307F0DFFC08BD10B50446BF
:1019300001F020FAA06900F0CFFF00220023C4E9E3
:101940000201C4E90423BDE8104001F01DBA0023E0
:1019500010B5002203600023C0E90223C0E904237C
:10196000044600F0CFFF0123A06123772046FFF754
:10197000DDFF204610BD036801221B6900211847C6
:10198000036800221B69114618470000052804D08F
:101990000628034818BF002070470248704700BF60
:1019A000789B0810489B08100C22002107F000BA11
:1019B00010B50446A8B103689BB1406808B15B6AE2
:1019C0009847A06838B12368D968490000F024F925
:1019D000A06807F0CBF920460C21BDE8104000F0CC
:1019E0001BB910BD70B5044616460D4699B190B1AD
:1019F0000B6A9847606048B156B1E968022006F06A
:101A000067FEA06020B96B6A60689847034801E0F0
:101A10002560002070BD0248FCE700BF80AEFFFFDC
:101A200000AFFFFF2DE9F0410E4688B0174604468F
:101A3000002857D00368002B54D08268002A51D068
:101A4000DA68BA4217D21B694068984705460028F1
:101A500034D1236860685B693A4631469847054649
:101A600060BB236860689B6969469847054628BB48
:101A700023689F686E462368D4F80880DA683621A8
:101A8000404608EB020507F093F923685C21DA6809
:101A9000284607F08DF9013E4346681E47449F42A1
:101AA00014D1236860681B699847054630B92368DC
:101AB00060685D69DA684146A847054620216846A6
:101AC00000F0AAF8284608B0BDE8F08116F8011F1A
:101AD0001A784A4003F8012B10F8012F31784A4058
:101AE0000270DCE7004DEDE700AFFFFF10B440B13E
:101AF000036833B1846824B15B6940685DF8044BC6
:101B0000184702485DF8044B704700BF00AFFFFF65
:101B1000F0B50E4689B0044620B3036813B382685B
:101B200002B3DD6840689B69694615449847B8B9B7
:101B3000236860681B69984790B9236860685F698B
:101B4000DA682946B84758B9236860685D699A68B9
:101B50006946A84720B9236860689B693146984761
:101B600009B0F0BD0048FBE700AFFFFFF0B50E463F
:101B700085B017461D46044610B301A8FFF714FFB1
:101B80002146012201A8FFF72DFF044690B93A46ED
:101B9000314601A8FFF746FF044658B90A9A29467C
:101BA00001A8FFF7A3FF044620B90B9901A8FFF78E
:101BB000AFFF044601A8FFF7FBFE204605B0F0BDCD
:101BC000004CFAE700AFFFFF00F090B800F035B826
:101BD00010B5044600F02CF82046BDE8104007F090
:101BE000C5B810B56C21012006F072FD044608B19D
:101BF00000F01AF8204610BD012300F0E5B90023DB
:101C000000F0E2B900F049B900F008B9012100F094
:101C100019B8002100F016B8024B0A461B680021D3
:101C2000184700BF900201086C22002107F0C0B8DD
:101C300010B16C21FFF7F0BF704708B56C2207F0B8
:101C4000ACF808BD0023C0E90033C1B9194A1A4BEA
:101C5000DFF88CC0C0E90223184B194AC0E904C35D
:101C6000184BC0E90623184B036203F17453A3F524
:101C70002303A3F692434362816600207047134B0F
:101C8000134ADFF860C0C0E9022303F1794303F58A
:101C9000740303F5016303610E4BC0E905C303F14F
:101CA000D14303F5C01303F51E63C3610A4B0362FE
:101CB0000A4BE0E767E6096A85AE67BB3AF54FA5D0
:101CC0007F520E518C68059BABD9831F07D57C369C
:101CD000D89E05C1310BC0FFA78FF964A44FFABE8F
:101CE00072F36E3C39590EF7FFF7ACBF2DE9F04F98
:101CF000CBB000F1080300931A460191002302A81B
:101D000052F8041B40F823100133082BF7D1DDE90A
:101D10000787DDE90236DDE904EBDDF8249006995A
:101D200009AA00240F2C5ED8019D05EB840C15F840
:101D300024A09CF8035045EA0A659CF801A045EAF6
:101D40000A459CF802A045EA0A2555604FEAF12CA5
:101D500088EA07058CEAB11C0D408CEA716A7D4067
:101D60000AEB050C2C4D55F82450654452F804CF6D
:101D70006544A94446EA030A4FEA733509EB0B0CA4
:101D800085EAB30506EA030B0AEA0E0A4AEA0B0AD9
:101D900085EAB35501345544402C4D44F346B946C9
:101DA0001AD1CDE90718CDE9046ECDE902530997A0
:101DB000CDF818C00023009A116802AA52F8232017
:101DC0000A440099013341F8042B082B0091F2D109
:101DD00000204BB0BDE8F08FB64647461E46884609
:101DE0002B4661469EE752F8045C52F838AC52F834
:101DF000180C4FEAF54C8CEA754C8CEA952C52F88D
:101E00003C5C28444FEABA4585EAFA15844485EAE1
:101E1000DA0A0CEB0A0598E7B89B08102DE9F8439D
:101E200005460E46144612B90020BDE8F883036843
:101E300003F03F07D318036022BF436801334360B8
:101E4000A7B1C7F14008424510D300F12809424626
:101E500009EB070006F0A1FF49462846FFF746FFB9
:101E60000028E2D14644A4EB08040746264405E0D6
:101E70002846FFF73BFF0028D7D1403C3F2CA6EB7C
:101E80000401F5D8002CCFD005F1280022463844B3
:101E900006F083FFC8E7FFF7C1BF036803F03F0305
:101EA0005A1C034470B5382A0D4600F128064FF03D
:101EB0008001044683F8281006EB020073D8C2F1B3
:101EC0003802002106F074FFD4E900315A0F42EACB
:101ED000C102110EDB0084F86010110C84F861104F
:101EE00084F86320110A1A0E84F864201A0C84F80E
:101EF00065201A0A84F8621084F8662084F8673036
:101F000031462046FFF7F2FE00284BD1E37A2B70D2
:101F100063896B70A3681B0AAB70A368EB70E37BEB
:101F20002B71E3896B71E3681B0AAB71E368EB719A
:101F3000E37C2B72638A6B7223691B0AAB72236981
:101F4000EB72E37D2B73E38A6B7363691B0AAB73DC
:101F50006369EB73E37E2B74638B6B74A3691B0A59
:101F6000AB74A369EB74E37F2B75E38B6B75E3694B
:101F70001B0AAB75E369EB7594F823302B76638C01
:101F80006B76236A1B0AAB76236AEB76A36E4BB99A
:101F900094F827302B77E38C6B77636A1B0AAB7757
:101FA000636AEB7770BD0021C2F1400206F000FFCA
:101FB00031462046FFF79AFE0028F3D10146382229
:101FC00030467FE7FFF769BFF0B59DB01C46064677
:101FD00001A80F461546FFF727FE214601A8FFF787
:101FE00031FE044658B93A46314601A8FFF716FFBC
:101FF000044620B9294601A8FFF74FFF044601A86F
:10200000FFF716FE20461DB0F0BD10B507230022D5
:102010000121C40744BF01FA03F4224313F1FF3343
:102020004FEA5000F5D2104610BD00002DE9F04FE8
:102030008FB0074606A816460C469A46FEF758FF8C
:10204000102200210AA806F0B3FE56B96348644C7A
:1020500005F0D2FC06A8FEF74CFF20460FB0BDE805
:10206000F08F06A8FEF76CFF054628B101465D48D3
:102070005D4C05F0C1FCEDE7394606A8FEF73CFFD4
:1020800007F18F039C420BD25848554C05F0B4FC25
:102090005349574805F0B0FC06A8FEF76FFFD9E793
:1020A00006A8FEF72BFF814606A8FEF729FF484445
:1020B0008442E9D8631CDC1B4FEA5409A94507EBAD
:1020C000050104D906A8FEF717FF0544F6E7641BCF
:1020D000DFF82CB10C91CDE90A750D94002506A806
:1020E0000AACFEF70FFF54F835200DF120088146A9
:1020F00008234032414606A8FEF75CFF30B918F8C5
:1021000000304B4526D101300828F8D12DB139498E
:102110003948384C05F070FCBEE70125DFE7049133
:10212000DDE90001894508BF804552D212F8010F50
:1021300003920592FFF769FF80EA1760C0B2049925
:10214000039A51F8200018F1010880EA072749F1A5
:102150000009E4E7189BBDF822700BB1189B1F60C3
:10216000BA45D3D354F835203B46314606A8FEF78E
:1021700021FF04460028C9D12049BAB20023CDE985
:1021800000234FF00008721E4FF000094FF0FF3798
:102190000029C4D1DDE90001894508BF804518D276
:1021A00012F8010F0392FFF730FF039A87EA0067E6
:1021B0000821002F01F1FF314FEA4707B8BF87EA36
:1021C0000B0711F0FF01F4D118F1010849F10009E2
:1021D000E0E7099ABA423FF45FAF97E7B89C08106E
:1021E0000101FF80DB9C08100F01FF80039D081098
:1021F0003E9D08100701FF806F9D0810489708104A
:10220000B71DC1042DE9F74F054668460E46FEF797
:102210006FFE4A49084606F0A4FF20B9484B2B60E0
:102220004FF4005005E04749444806F09AFF48B98A
:1022300028602B68034433602B688BB940B94FF09A
:10224000010811E040493D4806F08BFF0028E7D027
:102250003E4C6846FEF74DFE204603B0BDE8F08FC9
:102260000028F5D04FF000086846FEF769FE0446E6
:10227000002860D1364B37481844374BA0EB030A8F
:1022800051466846FEF738FE81466846FEF736FE40
:1022900007466846FEF734FE0744B8F1000F2FD119
:1022A000D5F8008068464146FEF726FE23460246E2
:1022B00081462146404607F017F8D6F800A000FBFB
:1022C00009F90AF1FF316846FEF716FE4FF0000BE0
:1022D000804602461AF1FF3023464BF1FF3107F0EA
:1022E00003F82B684B4500FB088804D1336843454D
:1022F00001D1BB421BD96846FEF740FE174CA8E748
:10230000791E6846FEF7F8FD4FF0000BA7EB40087A
:102310001AF1FF304A464BF1FF31234606F0E4FF45
:1023200000FB0999C845E6D3C5F8008037606846C8
:10233000FEF724FE8DE70A4C8BE700BFA09D081036
:1023400000800F10AB9D0810B89D08100901FF8098
:10235000ACAE0810100901088C0201080601FF80CC
:102360000F01FF8030B5144D2B78BFF35B8F13F056
:10237000010487B01CD1284600F067FEC0B10F4AA7
:1023800004940023CDE9022340F6034340F60142C2
:102390004FF4406100930A4840F60243FEF736F8D6
:1023A000284600F06AFE074A0749054800F03BFE50
:1023B000034807B030BD00BFC40A010840420F0007
:1023C000C80A01088C02010835050810EFF31083D4
:1023D000DB4372B6044A117829B9044903F00103BA
:1023E0000B70012313707047910B0108900B0108CB
:1023F000034B00221A70034B1B7803B162B670477F
:10240000910B0108900B010808B510461A4606F01A
:10241000C4FC002008BD38B504460D46A3880068FA
:1024200003F0070101238B4052B94360204601218C
:1024300004F03DF829462046BDE8384004F034B8A1
:102440008360F3E770B50E460446154603F0FCFFC3
:10245000013606D02A4620460021BDE87040FFF72D
:10246000DABF70BD0022FFF7EDBF0000884207B55C
:1024700002460AD0431C08D0013105D00023009346
:102480001946044800F026FD0146084603B05DF8F1
:1024900004FB00BF30010180B1F900305A1C01D1AA
:1024A00018467047834201D1486870470C31F3E702
:1024B000431C07B50AD0FFF7EFFF431C06D10023EA
:1024C000024600931946034800F004FD03B05DF88E
:1024D00004FB00BF30010180B1F900305A1C01D16A
:1024E00018467047834201D1886870470C31F3E782
:1024F000431C07B50AD0FFF7EFFF431C06D10023AA
:10250000024600931946034800F0E4FC03B05DF86E
:1025100004FB00BF300101802DE9F34DD0F80480A9
:1025200098F83A300446002B64D103685B689847FA
:1025300063681B6A83425DD0D8F82010D8F80C304D
:10254000C8F82000411AD8F8086037481940864278
:102550000C464FF0000546D098F83B30A1FB001226
:102560000027D8E90AABCDE90012002B45D000992D
:1025700021FA03F40199C3F1200CA3F1200201FA1E
:102580000CFC21FA02F221FA03F5DDE9000144EA2C
:102590000C04144310EB0A00A3F1200C41EB0B01D7
:1025A000C3F1200205FA03FB04FA0CFC24FA02F240
:1025B00004FA03FA4BEA0C0B4BEA020BB0EB0A02EB
:1025C00061EB0B03BB4208BFB24202D2C8E90A2347
:1025D00009E0013445F10005921B63EB0703104647
:1025E0001946C8E90A01D8E90C01021941EB0503B3
:1025F000C8E90C2302B0BDE8F08D32463B46DDE968
:10260000000106F071FE044612EB0A000D4643EB92
:102610000B01B94208BFB042E3D3013445F10005D4
:10262000821B61EB0703D1E740420F00824206D9CB
:102630008A420BD9884294BF00200120704788420B
:1026400006D98A428CBF00200120704701207047C4
:10265000002070472DE9F74F466896F83A30074654
:10266000002B40F0918096F83930002B40F08C80A0
:10267000FFF752FF7D68D7F800A06968002978D07D
:10268000D5E90C23D1E900018B4208BF824205D372
:10269000DAF8143003B0BDE8F04F1847801A61EB48
:1026A0000301CDE90001DDE90023D5E906019942E6
:1026B00008BF90422C6907D3A9683548814218D1D8
:1026C000009B9C4228BF1C462A6ADAF8103014444A
:1026D000EA681440204698473B685B689847224662
:1026E0000146306AFFF7A2FF00284DD03B685B69C6
:1026F000D0E795F83BC0BCF1000F28D0019B244ADD
:1027000003FA0CF31946009BACF1200803FA08F811
:1027100041EA08031946009BDFF87880CCF1200ECF
:1027200023FA0EFE41EA0E031946009B03FA0CF34E
:1027300018464FF0000910EB08004FF0000341EB82
:10274000090106F0D1FD844228BF0446BCE7009B86
:10275000DFF840B00E4AA1FB0389019B4FF0000C4B
:1027600001FB03991BEB08004FF000034CEB090140
:10277000E7E73369306AF2681844DAF8103010403D
:1027800003B0BDE8F04F184703B0BDE8F08F00BFBD
:1027900040420F003F420F0043682DE9F74F93F886
:1027A00038200546002A60D193F83A30002B5CD1DE
:1027B00003681B6898472B68DB6998472C4BD0F857
:1027C00000800122B8F1000F08BF98461F2302FACB
:1027D00003F141455FFA83FA02D0013BF7D19A46F3
:1027E0004468234E231F1D2B28BF2024231F4FF096
:1027F000070918F1FF3009FA03F94FF0000343F11C
:10280000FF314246C6FB090106F06EFD6B682A687F
:1028100001934FF0000BC3E900BB52680F46064618
:102820009047019B0122186202FA04F46B680021B0
:102830000020013CC3E90A01C3E90C01C3F8088088
:10284000284683F83BA0C3E90349C3E9066783F838
:1028500039B083F83AB083F83820FFF75DFE284698
:1028600003B0BDE8F04FFFF7F5BE03B0BDE8F08F51
:1028700040420F0070B5044600F07CFA2368DB6824
:102880009847636893F83A201AB1BDE8704000F0A9
:102890007BBA012283F8392063685B68A3B12046C4
:1028A000FFF73AFE65686E68D5E90C01D6E90023AA
:1028B000994208BF904207D3F3686B602B68002BE6
:1028C000EAD0B0689847E7E76368002283F83920C8
:1028D0002046FFF7BFFED8E738B50446FFF75CFF98
:1028E00000F048FA2046FFF717FE6368D3E90C456D
:1028F00000F04AFA2046294638BD08B5FFF7ECFF3C
:1029000008BD000000487047C09D0810024B1B68BE
:102910000BB102481847704794020108C09D081087
:10292000024B1B6803B11847704700BFD80B010862
:10293000007B704738B50D4B03600023C0E90131BF
:10294000027304460A480D46FEF7DEFA00F07AFEEE
:1029500055B1084B1A6862601C600548FEF7D4FA4E
:1029600000F086FE204638BD6560F6E7F09D081051
:10297000E00B0108DC0B0108144B10B503600446A2
:102980001348FEF7C1FA00F05DFEA3682BB1114AAF
:102990001368A34214D1636813600F4B0C481A6884
:1029A000A24204BF00221A60FEF7AEFA00F060FEF9
:1029B000237B13B9201F00F0A7FC204610BD13464F
:1029C0005A68A242FBD162685A60E6E7F09D08109F
:1029D000E00B0108DC0B0108100C010810B50446DF
:1029E000FFF7CAFF204600F08BFC204610BD000018
:1029F00070B5064617480D46FEF786FA00F022FE2F
:102A0000154B1C68A4B1A06880B106F0B4FBA842C5
:102A10000CD12A463146A06806F0B0F930B90D480D
:102A2000FEF772FA00F024FE204670BD6468E9E704
:102A3000072DF4D12A463146084806F09FF90028B0
:102A4000EDD10448FEF760FA00F012FE044B1C685A
:102A5000EAE700BFE00B0108DC0B0108B89D081095
:102A6000100C01080020704700207047036870B503
:102A70001B690122002104469847051E0DDB2368CF
:102A800002221B69002120469847236806462946F2
:102A90001B690022204698473546284670BD000035
:102AA00070B50E4600250446C0E900550B49304676
:102AB00006F069FB30442060294623681A782F2AE3
:102AC00006D101332360FFF793FF6060204670BD9D
:102AD000002AF8D0013301312360EEE7549E08103C
:102AE00000687047406808B520B1FFF721FF431E1A
:102AF0005842584108BD10B50446FFF7F3FF10B126
:102B0000606800B1043810BD406808B520B1FFF717
:102B10000FFFB0FA80F0400908BD10B50446FFF77A
:102B2000F3FF10B1606800B1043810BD4068003098
:102B300018BF012070477047704700207047F8B5F4
:102B40000368DB6D0E4604468F1898473546BD4234
:102B5000236806D05B6D15F8011B204698470130AD
:102B6000F5D1236820461B6E9847A81BF8BDF8B521
:102B70000368DB6D0E4604468F1898473546BD4204
:102B8000236807D09B6D20469847431C02D005F868
:102B9000010BF4E7236820461B6E9847A81BF8BD7D
:102BA0000020704700207047704700000F4B13B59E
:102BB0000022044640F8043BFFF7BCFE0C4B2360A8
:102BC0006C336360002363610A49204600F0F0FB28
:102BD0000346606128B9009002460146064800F0AD
:102BE00079F900F027FA204602B010BD009E0810C7
:102BF000D09E0810C49E0810190101800A4B03F1F1
:102C00000802743310B5044602604360406905F061
:102C1000BFFD064B236020465C3340F8043FFFF7BE
:102C2000ABFE204610BD00BFC89E0810609E081075
:102C300006F022B906F0D2B806F0C2B8F0B572B606
:102C4000234ADFF898C0002313604FF0E0221C46AF
:102C5000516801F00F0101314FF0FF371E46A2000D
:102C600002F1604202F56142C2F88070C2F88071E0
:102C70000022D51865440132082A85F80063F8D18E
:102C80000134A14203F10803E9DC124B4FF020624A
:102C90005A6040F2FA529860DA6000221E611146D2
:102CA0009C1801320C2A2176FAD14FF0FF3259627A
:102CB0009A62094ADA621F221A63D0E900310022BF
:102CC00082F314889D4682F310880847F0BD00BF48
:102CD00010E000E000ED00E0020000C000E100E0D4
:102CE000838803F00702012310B59340046809B9F3
:102CF000636010BDA360FCE707B500F03BF840F24D
:102D000002616846FFF7AEFB124D042401216846BC
:102D1000FFF7E6FF284600F03DFC00216846FFF77C
:102D2000DFFF284600F036FC013CEFD10A4E0424B8
:102D300001216846FFF7D4FF304600F02BFC00214C
:102D40006846FFF7CDFF304600F024FC013CEFD190
:102D5000DBE700BFF0490200801A0600EFF31080A5
:102D6000C04300F001007047EFF30580003018BF4A
:102D70000120704708B5FFF729FB024A13680133A9
:102D8000136008BD140C0108044A136823B1013B09
:102D900013600BB9FFF72CBB704700BF140C010880
:102DA0000122D0E84F3FC0E8412F0029F9D1D8B225
:102DB000003018BF01207047D0E85F3F0B449BB242
:102DC000C0E8523F002AF7D118467047D0E85F3F6D
:102DD0005B1A9BB2C0E8523F002AF7D118467047F1
:102DE00008B50B48FFF7DCFF28B1FFF7C3FFBFF3BF
:102DF0004F8F20BFFDE7FFF7B7FF08B1FFF77CFF5C
:102E0000FFF7ACFF0028F9D0012000F00EF900BF59
:102E1000580C0108F0B51B4D8FB001AC35EA200508
:102E200028BF05460E46174600213422204605F0ED
:102E3000BFFF154B03965B690493DA6B05925A6BDF
:102E40001B6B0692CDE90734CDE90157FFF792FFDE
:102E50000E4A13680133012B136004D1342221463A
:102E60000B4805F09AFF342221460A4805F095FFE9
:102E7000094B1B680BB107489847FFF785FF0020F7
:102E80000FB0F0BD0101FF80A0030108180C01087C
:102E9000240C01085C0C01081C0C01080FB4064846
:102EA00008B57446FFF77CFF014618B9224603486F
:102EB000FFF7B0FFFFF794FF200C01080001FF802F
:102EC0000020704700B5114672465DF804EBFFF72D
:102ED000A1BF000008B50446064876461546FFF730
:102EE0005FFF20B9324629462046FFF793FFFFF7E0
:102EF00077FF00BF200C01086FF01C0070476FF0D7
:102F0000150070470120704700207047704700008F
:102F1000034B186818B14FF0FF3101F0B7BB704791
:102F2000202A0108024B186808B101F0C7BB70479E
:102F3000202A0108F8B5074E15460C468F18BC42EA
:102F400005D014F8011B304603F0CEFDF7E7284604
:102F5000F8BD00BF742A010838B58DB215F0010420
:102F600005D0084803F09DFD041C18BF0124EB06A2
:102F700005D5044803F0A9FD08B144F0100420462B
:102F800038BD00BF742A010810B5044605F0EEFEF6
:102F9000204610BD10B50C462AB1044803F08AFD46
:102FA0002070012010BD1046FCE700BF742A010804
:102FB00038B51D46074B0360074B1B68044633B901
:102FC000064803F0D5FC2946044803F059FD204685
:102FD00038BD00BF4C9F081058190108742A010819
:102FE000002070470020704708B5012000F01DF850
:102FF000074A084913681844884289BF064B106085
:103000000C224FF0FF308CBF1A601846704700BF8B
:103010009803010800730408E86A010808B508B1BC
:10302000FFF76AFEFEE70120704708B5FFF7F6FFDD
:1030300001207047002105F09BBF08B500F088FB18
:1030400008BD08B500F08CFB08BD10B50378044638
:10305000DBB203F00303012B08D0FFF759FF2378FD
:1030600003F00302012A03D1FFF75CFF002003E015
:1030700043F002032370012010BD037823F0030303
:1030800043F001030370FFF74DBF00003F2870B508
:10309000044631DC194D55F820305A1C13D1022852
:1030A00011DCFFF79FFF034658B92046FFF798FF52
:1030B000034630B9124E3378BFF35B8FDB0704D57C
:1030C000104B45F82430184670BD3046FFF7BDFF61
:1030D0000028F5D04FF416534FF4A06240F201518E
:1030E0000848FFF765FF3046FFF7C7FF064A074964
:1030F0000448FFF798FFE3E70023E4E7980201089C
:10310000900C0108C80C01088C0201080D2F081052
:1031100038B50546FFF7BAFF0B4B002443F82540AE
:1031200030B905F0DDFA092303604FF0FF3038BDF8
:1031300003685B699847051E04DA05F0D1FA6D4211
:103140000560F2E72046F2E798020108FFF7E0BFCA
:1031500038B50C461546FFF799FF38B905F0C0FAA7
:10316000092303604FF0FF34204638BD0368214631
:10317000DB682A469847041EF6DA05F0B1FA644285
:103180000460EFE708B5131E06DA05F0A9FA162366
:1031900003604FF0FF3008BD04D0FFF7D9FF40EACD
:1031A000E070F8E71846F6E738B50C461546FFF725
:1031B0006DFF38B905F094FA092303604FF0FF342E
:1031C000204638BD036821469B682A469847041E5E
:1031D000F6DA05F085FA64420460EFE7002A08B5E4
:1031E00003DBBDE80840FFF7DFBF05F079FA1623DF
:1031F00003604FF0FF3008BD10B5FFF747FF0446EE
:1032000028B905F06DFA09230360204610BD036854
:10321000DB699847041EF8DA05F062FA644204603C
:103220000024F2E71FB504220C4640230DEB0201F7
:1032300001900DF109008DF8083005F0AEFD214632
:1032400002A805F04BFC044630B10198FFF7D4FF0B
:1032500010B12046FFF7EEFE204604B010BDFFF788
:10326000CBBF38B50C461546FFF710FF38B905F04F
:1032700037FA092303604FF0FF34204638BD036856
:1032800021461B692A469847041EF6DA05F028FAFB
:1032900064420460EFE7FFF7E4BF38B50D46FFF77F
:1032A000F5FE044630B905F01BFA092303604FF020
:1032B000FF3038BD0368DB699847002814BF4FF41E
:1032C00000534FF400436B60236820469B6A984785
:1032D00028610020EDE7FFF7E0BF000013B50446CA
:1032E00005F03CFD034628B90090014622460248FD
:1032F000FFF7F0FD02B010BD1F010180FFF7EEBF28
:1033000005F034BD05F032BD10B504460B48FDF79D
:10331000FBFD00F097F90023094A194652F82300F3
:10332000A04208BF42F823100133402BF6D10348D6
:10333000FDF7EAFDBDE8104000F09AB9980C0108CD
:103340009802010810B51248FDF7DEFD00F07AF989
:10335000104B032453F824207AB10134402CF9D1C6
:1033600005F0BEF9182303600948FDF7CDFD00F014
:103370007FF94FF0FF34204610BD4FF0FF32044874
:1033800043F82420FDF7C0FD00F072F9F3E700BF19
:10339000980C01089802010810B50446FFF7D2FF07
:1033A0000028A4BF014B43F8204010BD980201083B
:1033B00070B506460C46FFF7EFFF054690B1214673
:1033C000FFF730FF044630B9074B53F825209642EB
:1033D00003D143F82500204670BD05F081F909238B
:1033E0000360F8E70446F6E7980201080EB42DE9F9
:1033F000F04185B00546FFF7A5FF041E13DB00234F
:10340000294602A80193FFF74BFB02A8FFF78EFBAA
:103410001B4D064668B905F063F91323036045F8B0
:1034200024604FF0FF34204605B0BDE8F04103B002
:10343000704702A8FFF768FB074602A837B1FFF7FD
:103440006CFB0190019B45F82430ECE7FFF753FB40
:1034500006460028DFD0036802A8D3F80880FFF7EB
:103460003FFB0B9B024601A93046C0470646002899
:10347000E8D005F035F97642066045F82470D0E7CB
:103480009802010873B50E461849054605F069FE15
:10349000044620B9FFF7FAFD204602B070BD14497A
:1034A000284605F05EFE20B90120FFF7EFFD01245C
:1034B000F2E71049284605F054FE20B90220FFF734
:1034C000E5FD0224E8E72B78402B07D10422691C94
:1034D0000DEB020005F061FC019CDDE726F40041E4
:1034E0002846FFF783FF0446D6E700BFA89F0810D1
:1034F000AF9F0810A09F081013B50D4CFFF73AFCC2
:1035000022884FF6FF739A4208D1FFF73DFC002353
:103510002288009319460748FFF7DCFC012120466A
:10352000FFF74AFC02B0BDE81040FFF72DBC00BF1A
:10353000D40C01082301048037B50B4CFFF71AFCAB
:10354000258845B9FFF720FC228800952B4629469F
:103550000648FFF7BFFC01212046FFF737FC03B008
:10356000BDE83040FFF710BCD40C010824010480F2
:1035700008B5FFF7FFFB064B1B882BB903F0F8FAE1
:10358000BDE80840FFF700BC03F0EFFAF8E700BF22
:10359000D40C010842F21073984273B5044606DD5C
:1035A000002300931A4619460848FFF78BFCFFF7E3
:1035B000A9F90646FFF7A1F905463046FFF79DF940
:1035C000401BA042F9D302B070BD00BF00010180D2
:1035D00010B50446FFF7C8FB30B14FF47A70604372
:1035E000BDE81040FFF7D6BFFFF7B8FB0028F4D0C6
:1035F0002046BDE8104001F04CBD00007FB5061D1F
:1036000005461C220C463046002105F0D1FB084B34
:103610000296002C08BF1C461C23039368460B230C
:103620000094019301F01AF8286004B070BD00BF47
:10363000B79F081010B5002104460162FFF7DEFFB6
:10364000204610BD13B504464FF0FF31006801F06D
:103650001DF8024620B9236A0133236202B010BD6F
:103660000023009319460148FFF734FC150102803E
:1036700007B5036A013B0362006801F01FF80246C8
:1036800028B10023009319460248FFF723FC03B03A
:103690005DF804FB1701028010B50446006801F0D4
:1036A00025F8204610BD000008B5094B094A1A60EC
:1036B000094B9B1A094A1360094B0A4A1A600A4BC4
:1036C0009B1A0A4A136000F051F800F065F800BF39
:1036D0003C0D01080073040800770408380D010848
:1036E000D00C0108F06A010800730408CC0C010832
:1036F0000E4838B50E4B03600B251C240D4B45605E
:10370000C460836000F0AAFF0B4B18600B480C4BA1
:10371000C460C0E900350B4B836000F09FFF0A4B8B
:103720001860BDE8384005F091BA00BF080D0108E7
:10373000D09F08101C0D0108180D0108D80C0108B5
:10374000DD9F0810EC0C0108E80C010804F0B0BD86
:10375000024B4FF0FF31186800F098BF180D0108B8
:10376000014B186800F0AABF180D010808B501F058
:10377000C3FDBDE8084000F00CB8704708B5FFF77E
:10378000B7FFFFF7FAFFFFF79BFBBDE80840FFF725
:10379000DDBF00F043BA000007B51748174B0360C0
:1037A0000B2343601C23164CC360164B8360164BDF
:1037B00023614FF4805363614423E360134BA360A0
:1037C0001823A361124B236000F048FF114B2246DF
:1037D00018600021104801F089FB034628B90090C9
:1037E000224619460D48FFF775FB00F02FFA00231B
:1037F00000931A46F5E700BF402A0108E79F08102A
:10380000502A0108242A0108201A0108400D010845
:10381000F79F0810202A01087D3708101D0101803C
:1038200008B500F057F8000007B5411E0246002316
:10383000042923D8DFE801F0030A10161C000093C6
:103840001148002301221946FFF744FB009300238F
:10385000022219460D48F7E7009300230322194678
:103860000B48F1E700930023042219460948EBE7CF
:1038700000930023052219460748E5E7009300233B
:1038800019460648E0E700BF2501028026010280B4
:1038900027010280280102802A01028000010280A3
:1038A00010B501F03BFB034B1B6813B1BDE81040A2
:1038B000184710BD840D010808B5FFF75BFAFFF744
:1038C0001BFEFFF755FEFFF737FEBDE80840FFF788
:1038D0005BBA000008B5024C23689847FCE700BFBC
:1038E0009C0301081EF0040F0CBFEFF30880EFF3F8
:1038F0000980816911F8021C91BB01B590E80F1095
:10390000E047BDE800508CE80300244B93E8060034
:10391000914208BF704741B91EF0100F10D12049E5
:10392000086820F0010008600AE02CE9F00F1EF0A2
:10393000100F08BF2CED108AC1F838C081F822E0C2
:103940001A6092F82210906B61F0FF0E1EF0100FBB
:1039500008BFB0EC108AB0E8F00F80F30988704718
:10396000104A13689942FAD801B552F821C00FC81D
:10397000E047BDE80050CCF80000704701B500F00A
:1039800015FFBDE80140EFF3098CBEE701B500F07B
:10399000D3FEBDE80140EFF3098CB6E7B40301089C
:1039A00034EF00E0A8A0081008B5014610B11320BC
:1039B00001F00AFA002008BD08B5EFF305833BB11A
:1039C00000206FF0050100F012F86FF0050008BD4F
:1039D000EFF31083002BF3D1EFF31183002BEFD122
:1039E000DFF804C000DFF2E7A9390810704770471C
:1039F00070477047EFF310832BB9EFF3118000305D
:103A000018BF0120704701207047000038B5254CD1
:103A1000237A012B06D06FF00600FFF7E7FF4FF087
:103A2000FF3038BD01F03CFA10B94FF0FF30F4E739
:103A30001D4A1E4DFF2382F8223092F82230D168B1
:103A4000686863F0FF03DB43B3FA83F3C3F1200339
:103A5000C1F302218B4298BF4B1CFE2101FA03F3F4
:103A6000DBB2D377124901F0D5FA0028DDD101F09D
:103A70000DFB206101F0EEFA0E4800F0F4FF002883
:103A8000D3D001F055F82B6813F0010F4FF002036B
:103A900004D083F3148823720020C2E7032282F348
:103AA0001488F8E7A003010800ED00E040A008102A
:103AB0008D390810BC030108F8B5564C217A01294C
:103AC00000F0998031B14FF0FF30FFF78FFF4FF0DA
:103AD000FF30F8BD504D6B6D472B02D86FF00A00D8
:103AE000F3E7EF68002FEED02E8A002EEBD09C2259
:103AF00004F1080005F05CF9A4F85460D5E90B6105
:103B0000AB68E7653046236400F0B7F808B1C4F845
:103B10008060D5E90561304600F0AFF800286CD030
:103B20006667D5E90761304600F0A7F8002868D03D
:103B3000A667D5E90961304600F09FF8002864D0F7
:103B4000E6676E6B46B1D6E902233168304600F075
:103B5000FFF808B1C4F88460AE6B46B1D6E9022321
:103B60003168304600F0F4F808B1C4F88860EE6BB4
:103B700046B1D6E902233168304600F0E9F808B1D1
:103B8000C4F88C602E6C46B1D6E902233168304609
:103B900000F0DEF808B1C4F890606E6C46B1D6E96A
:103BA00002233168304600F0D3F808B1C4F89460BD
:103BB000AE6C46B1D6E902233168304600F0C8F851
:103BC00008B1C4F89860EE6C46B1D6E902233168BA
:103BD000304600F0BDF808B1C4F89C602D6D45B1C9
:103BE000D5E902232968284600F0B2F808B1C4F8E4
:103BF000A0500123237200206BE7D4F88030636764
:103C00008FE7D4F88030A36793E7D4F88030E36778
:103C100097E700BFA003010840A0081008B500F016
:103C20002BF8EFF3058333B16FF00500FFF7DEFEED
:103C30006FF0050008BDFFF7DDFE0028F4D1DFF8C6
:103C400008C000DFF6E700BFB93A081008B5EFF387
:103C5000058333B16FF00500FFF7C8FE6FF0050074
:103C600008BDFFF7C7FE0028F4D1DFF808C000DF69
:103C7000F6E700BF0D3A0810704710B588B140EA6A
:103C8000010313F007030DD117290DD9016008397D
:103C90000C181022846042600B5081684A60C36037
:103CA000012010BD0020FCE71846FAE770B530B3DC
:103CB00071B332F003032BD10F3121F0070100F172
:103CC00008052E686C68731B24F003041B1B9942C3
:103CD00005D933683546002BF3D118460FE0446808
:103CE00003680C4444601844083843689C4288BF09
:103CF00044606B6811431BB9696005F1080070BD31
:103D000023F00303E818EE50416028600830F6E71E
:103D10000020F4E710B580B1C1B1A1F1080400F1B1
:103D200008030022A34209D1596821F00304416825
:103D3000091B41603AB95A60012010BD19681A4642
:103D400021B10B46EEE71B681360F5E70846F4E780
:103D500030B5C0B189B1C2B1CBB10024C0E90142D4
:103D600002FB01F41D190160C3604361056118463F
:103D7000013904D1A21A99500121084630BD851895
:103D800005602846F4E70146F7E71146F5E71946CE
:103D9000F3E710B50346A8B100F1140252E8000F92
:103DA00010B9BFF32F8F04E0016842E8001404B19A
:103DB000F4E738B1043353E8002F511C43E80014F2
:103DC00004B1F8E710BD30B5F0B1C3688B421BD821
:103DD00003698B4218D900F114031A680A60BFF313
:103DE0005F8F53E8002F0C689442F6D143E800152A
:103DF00005B1F2E7043050E8003F5A1E40E80021C8
:103E000001B1F8E7002030BD6FF00300FBE7EFF3EE
:103E100010832BB9EFF31180003018BF01207047D9
:103E200001207047036B30B5E3B1CD780024DA7818
:103E3000AA420FD31A46C1E901248AB19160A4B104
:103E40006160283050E8003F5A1C40E8002101B171
:103E5000F8E730BD5A681C46002AECD01346E6E766
:103E6000C162ECE7C1E90133C1620163E9E7D1E96D
:103E7000013223B19A608A681AB153607047C262F6
:103E8000F9E70363704700002DE9F74F8A460746BC
:103E900000B131B96FF003010020FFF7AAFD002443
:103EA00076E0CE1C26F003060C36B0FA80F3B6FAA4
:103EB00086F10B441F2BEDDD06FB00F8FAB1946888
:103EC000D2F80090D2E904B53CB1A30702D1D3687F
:103ED000332B05D86FF00801DEE7D368002BF9D14A
:103EE000BBF1000F07D01BF0030301D1A84553D944
:103EF0006FF00901D0E7002DFAD174B901E09146C5
:103F00009346274BD3F8A000D8B1FFF742FF0446F1
:103F1000A0B10125BBF1000F25D1214B0193002257
:103F20004146D86FFFF7C2FE8346B0B935B1019B59
:103F3000D3F8A000214658B1FFF745FF6FF0040108
:103F4000AAE701223421D3F88000FFF7AFFEDEE7B5
:103F5000D3F88000FFF7DEFEF0E74246002104F0D0
:103F600027FF45F00205082323700023A360C4E95E
:103F700009A3C4E90B3332465B46A570C4F804902C
:103F8000394604F10C00FFF7E3FE054B054A1A67BA
:103F9000204603B0BDE8F08F002CB2D01D46E2E70A
:103FA000A0030108A93F0810F8B586780446A6B317
:103FB000C56801460026284605F10C07FFF757FFA4
:103FC00026703846FFF7FFFEAB68002B4BD05B78BE
:103FD000932B48D13846FFF7DCFE0446002842D038
:103FE000284600F040FD32460746314600F0D8FD35
:103FF000384600F07FFD6A6A8168074604F10C00CC
:1040000004F0CBFE07232370A670FB68E370214603
:104010002846BDE8F840FFF705BF8568AB68002B70
:10402000F5D05B78832BF2D1284600F01CFD324698
:104030003146074600F0B4FD384600F05BFD064609
:104040006A6A806804F10C0104F0A7FEF3680BB102
:10405000E2781A7000232370214605F10C00BDE8B8
:10406000F840FFF7B0BEF8BD2DE9F0410C46174609
:104070009846054618B10378082B00D141B9284667
:104080006FF00301FFF7B5FC6FF00300BDE8F081AE
:104090008368C3B15B78832B15D100F0E4FC012267
:1040A0000646002100F07CFD304600F023FD064668
:1040B0006A6A8068214604F070FEF0680028E5D046
:1040C00007700020E2E705F10C00FFF762FE0646EC
:1040D00070B121466A6A0C3004F05FFE00240723A9
:1040E0003370B470F77031462846FFF79BFEE8E75F
:1040F000B8F1000F10D04146932000F065FE40B1AA
:10410000074B2846596900F09BFCEFF30983C3E98C
:1041100002476FF00100B9E76FF00200B6E700BF99
:10412000A003010810B500F1280353E8002F12B9CD
:10413000BFF32F8F04E0511E43E8001404B1F4E7ED
:104140000AB9002010BDC06A01230028F9D0821CE2
:10415000D2E84F1FC2E8443F04B1F9E711F0FF0F66
:10416000F0D08068F1E700002DE9F0410F461446D9
:104170009846054618B10378082B00D141B9284666
:104180006FF00301FFF735FC6FF00300BDE8F0812D
:10419000FFF7C8FF064600283DD001462846FFF736
:1041A00066FE6A6A06F10C01384604F0F6FD0CB1B1
:1041B000F3782370002405F10C073470314638463B
:1041C000FFF701FEAB680BB90020DFE75B78932BAC
:1041D000FAD13846FFF7DDFD06460028F4D0284620
:1041E00000F041FC21460746012200F0D9FC384688
:1041F00000F080FC6A6A8168074606F10C0004F052
:10420000CCFD07233370B470FB68F3703146284649
:10421000FFF708FED8E7B8F1000F10D04146832021
:1042200000F0D2FD40B1074B2846596900F008FC68
:10423000EFF30983C3E902746FF00100A6E76FF0A2
:104240000200A3E7A003010810B50446EFF30583BD
:1042500033B100206FF00501FFF7CBFB002010BD4C
:10426000FFF7D5FD0028F4D12046DFF808C000DFB5
:10427000F5E700BF893E08102DE9F04106460F46DC
:1042800090461C46EFF305834BB196B930466FF06C
:104290000301FFF7AEFB6FF00300BDE8F081FFF70D
:1042A000B6FD0028F1D130462346DFF848C000DFD4
:1042B000F3E73378082BE9D1002FE7D0002CE5D1C4
:1042C00006F10C00FFF765FD054680B1726A3946BC
:1042D0000C3004F062FD072328462B70AC7085F883
:1042E0000380C5E9017600F0A5FA2046D5E76FF016
:1042F0000200D2E769400810F8B504460F4616469A
:104300001D46EFF3058343B18CB920466FF00301DE
:10431000FFF76FFB6FF00300F8BDFFF778FD002893
:10432000F2D120462B46DFF844C000DFF4E72378C3
:10433000082BEAD1002FE8D0002DE6D12046FFF768
:10434000F1FE054670B100F10C01626A384604F0D6
:1043500024FD0EB1EB7833702846EC6000F06AFA69
:104360000020D9E76FF00200D6E700BF69410810CE
:10437000EFF310832BB9EFF31180003018BF012049
:10438000704701207047000070B5A8B38468D0E979
:1043900000566CB114F0030302D1C2681B2A1AD86C
:1043A0006FF008010020FFF723FB0024204670BDBA
:1043B000C368002BF4D1124BD3F8940030B901221A
:1043C0001C21D3F88000FFF771FC01E0FFF7E1FC4E
:1043D000044660B101230422A37000232270E6701A
:1043E0006560C4E90233C4E904332376DEE76FF085
:1043F0000401FFF7FDFAD9E705460646DBE700BFF3
:10440000A0030108284B70B55D6904460E4635B916
:104410006FF00701FFF7ECFA4FF0FF3070BD10B1FD
:104420000378042B07D020466FF00301FFF7E0FA72
:104430006FF00300F2E7037E53B9EA6AC560C0E992
:10444000043202B11061EC62012323760020E5E71B
:10445000C278D1070DD5C168A9420AD1FF2B06D178
:104460006FF00F01FFF7C4FA6FF00200D6E70133D7
:10447000EBE7002EF8D093070AD5E06895F92030D5
:1044800090F920209A4203DA80F8203000F0FFFAF9
:104490003146532000F098FC18B12946204600F020
:1044A000CFFA6FF00100B9E7A003010838B52E4B31
:1044B0005A69044632B96FF00701FFF799FA4FF0D5
:1044C000FF3038BD10B10378042B07D020466FF0C1
:1044D0000301FFF78DFA6FF00300F2E7037E33B9B3
:1044E0006FF00E01FFF784FA6FF00200E9E7C16890
:1044F000914202D06FF00D01F4E7013BDBB203768D
:1045000023BB43690BB101691961216901B34B6197
:10451000E3789B0705D592F92110D36AD3B982F8C5
:104520002010A3687BB1204600F09DFA00220546CA
:10453000114600F035FBEB6A636100232361012320
:10454000E560EC622376002000F0FCFA0020B8E77A
:10455000D362DDE7986820B190F920008142B8BFAE
:1045600001465B69DAE700BFA003010870B50446A5
:1045700010B10378042B07D020466FF00301FFF73A
:1045800037FA6FF0030070BD037E7BB36369C068C8
:104590000BB122691A612269D2B15361E3789B079A
:1045A0000BD590F92130C26AA2B990F920209A4225
:1045B00003D080F8203000F06AFAA3689BB120464F
:1045C00000F051FA00226FF0020100F0E9FAF4E77E
:1045D000C362E3E7916821B191F920108B42B8BF23
:1045E0000B465269E0E7002000F0ACFAA078002604
:1045F00010F001002670C6D0074BD3F89450214626
:1046000025B12846FFF7DFFB3046BCE7D3F8800032
:10461000FFF780FB2846B6E7A00301082DE9F0412B
:104620000446002601270CB9BDE8F081E378D4F8F0
:1046300014801B0710D5A36826766BB1204600F0C6
:1046400012FA00220546114600F0AAFAEB6AE5606C
:10465000C4E90463EC6227764446E4E708B5024601
:10466000EFF3058333B100206FF00501FFF7C0F9C8
:10467000002008BDFFF77CFE0028F4D11046DFF8CB
:1046800008C000DFF5E700BF8943081008B50246FF
:10469000EFF305833BB110466FF00501FFF7A8F972
:1046A0006FF0050008BDFFF763FE0028F3D1104648
:1046B000DFF804C000DFF5E70544081008B502463E
:1046C000EFF305833BB110466FF00501FFF790F95A
:1046D0006FF0050008BDFFF74BFE0028F3D1104630
:1046E000DFF804C000DFF5E7AD44081008B5024666
:1046F000EFF305833BB110466FF00501FFF778F942
:104700006FF0050008BDFFF733FE0028F3D1104617
:10471000DFF804C000DFF5E76D45081010B5D0E8FC
:104720005F3F5A1C914200D80022C0E8542F04B1C8
:10473000F5E798B210BD000038B51B4C00F0A0FCA6
:10474000E3680133E360236D03B1984700F0BAF9E1
:10475000002000F0F7F9236C2BB1A26BA1698A420B
:1047600002D0A163E36338BDE36B0BB1013BE363AC
:10477000E36B002BF7D1237A022BF4D1656A002D6D
:10478000F1D095F9201092F920309942EBD12846CA
:1047900000F073F9A06B00F08DF9284600F0C8F91D
:1047A000A563236CDEE700BFA003010870B5204CB1
:1047B00004F1560504F15A06B4F85410D5E85F3FE9
:1047C00013B9BFF32F8F04E05A1EC5E8502F00B174
:1047D000F4E79BB23BB33046FFF7A0FFE36D53F81D
:1047E000200000B30378013B062BE5D801A252F864
:1047F00023F000BF11480810B947081017480810E7
:10480000B94708101B4808101F4808102348081013
:10481000236E9847D0E7636EFBE7A36EF9E7E36E7C
:10482000F7E7236FF5E70020BDE8704000F08AB994
:10483000A003010870B5164C0546B4F8541004F1F5
:104840005602D2E85F3F994202D8BFF32F8F04E0AF
:10485000581CC2E8560F06B1F3E79BB2994205D83F
:1048600029460220BDE87040FEF7DEBF04F1580083
:10487000FFF754FFE36D43F82050637A23B9054BEB
:104880004FF080525A6070BD0123A372FBE700BF56
:10489000A003010800ED00E0EFF310832BB9EFF364
:1048A0001180003018BF01207047012070470000C0
:1048B00010B50123094A437090F92010536A1C3245
:1048C0001BB193F920408C4205DCC0E902329060B4
:1048D00003B1D86010BD1A469B68F1E7A003010838
:1048E000014B5869704700BFA003010808B5FEF7E7
:1048F000D7FFDFF810C000DF4FF0FF310020FFF7D7
:1049000076F8FEE7394E0810930710B502F001045F
:1049100022D400F1280384B153E8000F00EA010219
:104920008A4203D0BFF32F8F002005E020EA010266
:1049300043E8002404B1EFE710BD53E8000F08423C
:1049400003D1BFF32F8F002005E020EA010243E8E6
:10495000002404B1F1E7EFE7806A01EA00031CB12B
:10496000994218BF0020E7E7002B08BF0020E3E7CB
:1049700010B5084A136B00213BB94FF0FF34C461F6
:10498000C0E9043121B1086110BD19461B69F3E784
:104990001063F9E7A003010810B5C4694269631CFC
:1049A00010D11AB9104B1B6B98420AD1036903B19D
:1049B0005A6142691AB113610023436101E00A4A56
:1049C000136310BD1AB9084BDB6A8342F9D103693E
:1049D0001BB1D9695A612144D9614269002AEAD1DF
:1049E000014AD362EDE700BFA003010810B5002320
:1049F000038083789A07044608D513F0100F016BE3
:104A00000E4B0FD0D3F88400FFF7DDF9A378DB0756
:104A100012D50A4BD3F88800214638B1BDE81040C2
:104A2000FFF7D1B9586FFFF775F9EFE7D3F88000BA
:104A3000BDE81040FFF76EB910BD00BFA00301082C
:104A400010B561B191F9202083681BB193F9204022
:104A5000944205DAC1E90230816003B1D96010BD2A
:104A600018469B68F1E783682BB19A68826002B1AF
:104A7000D0600022DA6018467047C36833B182689C
:104A80009A60826802B1D3600023C360704710B59A
:104A90000146044664B12378012B07D00846FFF78E
:104AA000ECFF2046BDE81040FFF7CABFE468F1E71D
:104AB00010BD00000123014643700148FFF7C0BF4D
:104AC000BC03010838B50A4DEC6A84B1E369013BC7
:104AD000E36163B92046FFF7D0FFFFF7EBFF2469DE
:104AE00024B1E369002BF5D000236361EC6238BD8B
:104AF000A003010890F82230826B13F0100F0CBF56
:104B00006020202010447047074B596951B10B6B4E
:104B10008A6B934203D21A68044B9A4202D0012056
:104B2000FEF782BE704700BFA0030108A52E5AE21F
:104B300008B502234370024B9861FFF7E5FF08BDFB
:104B4000A003010810B5154B04461A7A5969A8B993
:104B5000022A21D101B35C6AF4B194F9202091F9C1
:104B600020309A4218DD2046FFF787FF0846FFF7FE
:104B70009FFE2046BDE81040FFF7DABF022A06D1AB
:104B800029B190F9202091F920309A42EEDC20469C
:104B9000BDE81040FFF78EBF10BD00BFA0030108A5
:104BA00038B504461546FFF7A5FF01602046FFF71C
:104BB000F3FE1DB1BDE83840FFF7C4BFBDE8384083
:104BC000FFF778BF10B54378332B04460CD1416A08
:104BD00090F82320FFF798FE014628B120460022D6
:104BE000BDE81040FFF7DCBF10BD00002DE9F04F1D
:104BF00085B08246029128B96FF00301FEF7F7FEF7
:104C00000024B1E0002A45D094689769D2E9046590
:104C100044B1A30702D1D368432B06D86FF0080133
:104C20000020EBE7D368002BF8D13EB1700702D12A
:104C3000002D40F0B3806FF00A01F1E72FB17B1E29
:104C4000372B03D96FF00B01EAE71827002D40F04E
:104C5000A980D2E9009301934CBB564BD3F888004E
:104C6000F0B1FFF796F80446002800F094804FF06A
:104C70000108002E36D1DFF83CB1DDB94E4ADBF831
:104C80008400556DB0B1FFF784F8D8B148F0100832
:104C9000064623E091461827154616460192DCE7A2
:104CA00001224421D3F88000FFF700F8DBE74FF042
:104CB0000008DEE732462946DBF87400FEF7F6FF0F
:104CC0000028E5D1B8F1000F59D0DBF88820002A80
:104CD0004ED021461046FFF776F8002448F002082F
:104CE000002C58D040F2011323809DF80430E3706B
:104CF0000023C4E90233C4E90433C4E9063384F869
:104D00002330C4E90933C4E90B36A5F14003334429
:104D10007FB2C4E90E3AFD22284B84F80280C4F821
:104D2000049084F8207084F8217084F82220656350
:104D30003360214B1B685B0723D4A36B00201A460A
:104D400003F1340143F8040B9942FBD11C4BC2E937
:104D50000D3A4FF08073D363029B1362154B194ACF
:104D60001A662046FFF7EEFE204605B0BDE8F08F3C
:104D70002146DBF880000392FEF7CCFFADE7444606
:104D8000ACE7AD08113D4FF0CC33002DD5D046F83F
:104D9000043F013DF9E76FF0040141E7002F7FF484
:104DA0004EAF182769077FF446AF472D3FF651AF46
:104DB00041E700BFA003010840A00810A52E5AE259
:104DC000ED480810C54B081038B5194B0246187A43
:104DD00002281C4627D1586960B15B6A2BB34B1C73
:104DE000427008D1FFF7C4FD1248FFF73CFEFFF701
:104DF0009FFE012038BDE36A002213B1DD69A9429C
:104E00000BD2C161C0E904325AB11061002BEBD062
:104E1000DA695861511AD961E6E71A46491B1B69DC
:104E2000EBE7E062F2E70020E4E71846E2E700BFC4
:104E3000A0030108BC03010838B5174D6C694CB3D9
:104E40002B7A022B26D16B6A23B3E06AFFF7E6FBCD
:104E5000A06918B100221146FFF7A2FEEFF3098303
:104E60000E48A363FFF7FFFDFFF762FE00236B61AF
:104E7000E378DB0701D5A36923B12046BDE83840BC
:104E8000FFF7B4BD04226270E3606B6BA36003B1F3
:104E9000DC606C6338BD00BFA0030108BC030108DF
:104EA00070B50E4D0E4EA96AA9B9B26D0D48FFF747
:104EB0009DFE041CA86218BF0124736E4BB1A96C3F
:104EC00039B9F26D0848FFF791FE0028A86408BFC1
:104ED0000024204670BD0124EFE700BFA0030108B5
:104EE00040A0081021380810D14F081010B5044612
:104EF000EFF3058333B100206FF00501FEF777FD76
:104F0000002010BDFFF7C8FC0028F4D12046DFF8D0
:104F100008C000DFF5E700BFED4B081008B5EFF360
:104F2000058313B1054B586908BDFFF7B5FC002890
:104F3000F8D1DFF80CC000DFF6E700BFA0030108DE
:104F4000E14808100C4A536C30B5002413B11D69B8
:104F50008D420AD90161C0E902431BB11D69986005
:104F6000691A19612CB1E06030BD1C46491BDB6831
:104F7000ECE75064F8E700BFA003010870B5134DDB
:104F80006C6C04B32369013B236101262369D3B907
:104F9000E3680BB1A2689A606B6400231A4604F1BF
:104FA0001801E86CFFF768F918B121460320FEF7F5
:104FB0003BFCE378012B07D161692046FFF7C2FF74
:104FC0006C6C002CE2D170BD6670F9E7A00301089B
:104FD0000D4B13B51A6E586E0C4C0821FFF734F9BF
:104FE000E06470B10A4B23654FF0FF33002269463D
:104FF000E06CFFF781F90028F6D1DDE90030984731
:10500000F2E702B010BD00BF40A00810A0030108E5
:105010007D4F0810A8B10C4B1B68B3FBF0F00138B2
:10502000B0F1807F0DD2094BFF2283F82320A3F536
:105030004F6306221A60586000209860044B187075
:1050400070474FF0FF3070474404010800ED00E066
:10505000D8130108074B1A782AB100221A70064BA0
:105060004FF080625A60054A136843F001031360F1
:10507000704700BFD813010800ED00E010E000E029
:10508000014B1B68704700BF10E000E04FF0FF309D
:105090007047FEF791BC00007047EFF3108072B6C6
:1050A000704780F310887047FFF7F6FF0F4C104DE4
:1050B000AC4209DA21686268A368043BA2BFC85801
:1050C000D050FAE70C34F3E70A490B4A002091422A
:1050D000BCBF41F8040BFAE7084809490860BFF370
:1050E0004F8F00F019F9FBF7F1F8FEE784AE0810D6
:1050F0009CAE081088090108EC6A0108000001084C
:1051000008ED00E0FEE7FEE700B504207146084226
:1051100002D0EFF3098001E0EFF30880043000F0E3
:10512000A7FEFEE770477047574BD3F8801301F096
:105130000F018A0002F1804202F5181210B5D2F870
:10514000400300F00700032862D0042863D04F4AD0
:105150004F4B002808BF13464B4A002969D1D2F8AB
:105160009005D2F88815D2F8884514F0405FC1F355
:10517000017105D0D2F88825C2F30172012A01D14C
:10518000C00701D4032913D13F4AD2F88015D2F8C1
:105190008405D2F88025C0F30C00B3FBF0F0C1F316
:1051A000110303FB00F1C2F300630133B1FBF3F31E
:1051B000354A3848D2F88023C2F30112D340364A28
:1051C0001360364AD2F890101269120E0132B3FB06
:1051D000F2F20260C1F307220132B3FBF2F3304A6C
:1051E00030491360304A136003F5742202F23F2203
:1051F000B2FBF1F22D4903F2E7330A704FF47A72F1
:10520000B3FBF2F32A4A13602A4ADB03136010BD92
:10521000294B1B68A0E7D2F8003303F01F03112BC2
:1052200001D0132B02D14FF4004395E74FF4FA431A
:1052300092E70129BCD1D2F84006D2F80016D2F884
:10524000004614F0405FC1F3017105D0D2F800268A
:10525000C2F30172012A01D1C20701D40329A7D1E7
:105260000949D1F80026D1F80006D1F8001602F05D
:105270007F025343C0F30422B3FBF2F3C1F30442B1
:10528000B3FBF2F394E700BF0000264000127A005F
:1052900000366E01500401084C0401080000214052
:1052A0004404010840420F0058040108600401084A
:1052B0005C040108540401084804010808B50D4BBA
:1052C000D3F8802122F0404242F08042C3F880218E
:1052D000D3F8802142F00042C3F88021D3F8802126
:1052E00022F00102C3F88021FFF71DFFBDE808404E
:1052F000FFF71ABF0000264008B501F0B9F9FFF723
:10530000DDFF00F02FF800F033F800F005F9BDE8FC
:105310000840FFF707BF000008B5FFF7BEFE074AC9
:10532000D2F8883043F47003C2F88830BFF34F8F4F
:10533000BFF36F8FBDE80840FFF7B3BE00ED00E09C
:10534000014800F087BA00BFC0140108014800F00E
:1053500081BA00BF18150108014800F07BBA00BFF0
:105360006814010800221146042000F0ABBA0000C6
:1053700010B500F066FD0446084800F0CBF9084877
:1053800000F0F8F9074800F0F5F9074800F0F2F9E5
:105390002046BDE8104000F058BD00BF3C14010895
:1053A000E4A4081018A50810B0A4081013B50A4CFE
:1053B0004FF4165300934FF4A062002340F20151C2
:1053C0002046FCF715F9054A0549204602B0BDE81C
:1053D0001040FDF728BE00BFBC1501088C02010873
:1053E0008D1508101D4B98420ED00FD840282ED096
:1053F00005D800282FD0102827D0194870478028BA
:1054000027D0B0F5807FF8D114487047154B9842EB
:1054100014D008D8B0F1204F1DD0134B9842ECD1D6
:105420004FF4A0007047114B98420AD001339842C4
:1054300009D0023B9842E0D10D4870474FF4A400D8
:1054400070470C4870470C4870470C4870470C4830
:1054500070470C4870470020704700BF060052009C
:10546000FF005200010000F0090000A0040000F05D
:1054700001005200020052000300520001005000DF
:10548000020050000500520008B50B4B1B69002BB1
:1054900010DB0A4B1868FFF7A5FF094B0122C3F880
:1054A0008C24D3F80C24002AFBD1D3F88C24002AB6
:1054B000F7D108BD0348FCE720002340D0160108BF
:1054C000000025400200500000F17043B3F5801F3A
:1054D00001D2580A704700F16C43B3F5004F03D274
:1054E000580A40F48030704700F16A40B0F5004F30
:1054F0003ABF400A40F400304FF0FF30704708B523
:105500000246FFF7E1FF01301DBFC2F30800B0FA09
:1055100080F04009002008BD07B55523ADF80030E4
:105520000D4900236846019300F058FCBDF9003096
:10553000002B08DB5909012203F01F0302FA03F3D1
:10554000064A42F8213002220549012000F06EF996
:1055500003B05DF804FB00BF1D06010800E100E098
:105560008506010810B50446FFF7C9FF18B3FFF719
:10557000DBFD124B124A1A6000225C609A60DA600E
:10558000104B11491A691B69120EC3F3072302FB62
:10559000011103FB01110D4B4FF47A721B68B3FB31
:1055A000F2F34FF48070B1FBF3F1BDE8104001F667
:1055B000980104F025B8064810BD00BFD0160108B8
:1055C0000001001C0000214060F590004C0401081F
:1055D0000600520038B505460C46FFF790FF28B389
:1055E00021B3FFF7A1FD124B124A1A604FF48372E8
:1055F0005A609D60DC60104B10491A691B69120EDD
:10560000C3F3072302FB011103FB01110C4B4FF401
:105610007A721B68B3FBF2F34FF48070B1FBF3F1C5
:10562000BDE8384001F5617103F0EABF054838BDB7
:10563000D01601080001000600002140808D5B00AB
:105640004C0401080600520000F13F4000F54E00F6
:10565000C00900F1806000F54430032910B54FEA1D
:10566000001002F01F024FF01F0309D80468C900A0
:105670008B4024EA030302FA01F11943016010BDD3
:1056800004394468C9008B4024EA030302FA01F19B
:1056900019434160F3E7F0B44FF0010C05689DF841
:1056A00010700CFA01FC03F001038B4025EA0C0595
:1056B0001D430560836A8C000F25A54002F00F0290
:1056C00002FA04F423EA050323433A468362F0BC5A
:1056D000FFF7BABF0369002BBDBF89B2416000204C
:1056E0000048704701008A000368002BBFBF89B2E1
:1056F000C26081600020A8BF0048704701008A0096
:105700000369002BBDBFC3680B60002000487047D1
:1057100001008A00024B1A6802B91860704700BF86
:10572000E0160108F0B52C246043104C059E276854
:10573000DDB23D503C18680100F1804000F50C10CE
:1057400020610B48C3F3072C1F0C00EB4C103B04EB
:105750003B43C4F804C0A760606183600023C4E9D0
:105760000721A3610EB13388A381F0BDE0160108C3
:1057700000102340F0B54369826985B002ADD0E9DD
:10578000036719330095C16AADF8083004460392E7
:10579000D0E90932006AFFF7C5FF00223B461146F7
:1057A00000923046FFF7BEFF216B284600F016FB43
:1057B000BDF90830002B08DB5909012203F01F0353
:1057C00002FA03F3024A42F8213005B0F0BD00BFEF
:1057D00000E100E0F0B5124C25682C2404FB0056D3
:1057E00004FB01513569B5B18869B0B92C68002C4A
:1057F00013DAD6F804C04E68012404FA06F71688B6
:1058000046EA07461660EA608C6104FA0CF4A4B21A
:105810004B62AC60F0BD0348FCE70348FAE700BF09
:10582000E016010804028A0007028A00074B10B53F
:105830001C682C2303FB0040C369934289BF036AA1
:10584000034843F82210002010BD00BFE0160108F5
:105850000A028A0073B54369DD6800262A0C0446F3
:1058600001961BD02A0C120400691A601B68036998
:10587000B34213DA01A9FFF743FF58B90198E2696F
:1058800003681E0CDBB29A4204D9226A52F8233014
:1058900003B1984731462069FFF71CFFADB245B10F
:1058A00063691D601B68636A002533B198476562B0
:1058B000A56163691B6802B070BDA36A002BF7D0B5
:1058C0009847F5E703460F2B70B510462ED84AB916
:1058D00061BB5B0103F18043154A03F50C131360B0
:1058E000084670BD11B311F01F051FD1114E104CA9
:1058F0005B0103F1804303F50C13C6E90012CA08EB
:105900002946236003F054FA29462068FFF7E2FE97
:10591000294632462068FFF7E7FE014620B9206895
:10592000FFF7D8FE0028DCD00348DAE70348D8E7C1
:10593000EC160108E416010801018A0003018A003F
:105940002DE9F0411A4E3268D2F80C80D8F80020C8
:10595000824204460D4628D919BB00F072FA074668
:1059600030680368002B1EDAD8F8041004F01F0218
:105970006409012303FA02F251F8243013421CBFD8
:10598000934341F824304FF0000114BF0024094C28
:10599000FFF7A0FE15B9384600F057FA2046BDE8DB
:1059A000F0810027DCE7044CF4E7044CF6E700BF85
:1059B000EC160108020188000301880004018A0036
:1059C0000B4B1B68DB681A6882420ED941095A6882
:1059D00000F01F00012303FA00F052F821301842B2
:1059E000044B054808BF184670470448704700BF7D
:1059F000EC160108000188000101880004018A00FA
:105A0000036813F4006FD0F8083214BF80224022DC
:105A1000C3F3080393421ABFC0F8401201200020CC
:105A2000704700002DE9F04F002800F0B9800029F0
:105A300000F0B6800F78012F03D15B4B984200F045
:105A4000AF800C7F1CB1584B984240F0A98091F870
:105A500001A091F80290BAF1020F00F09B80BAF118
:105A6000050F02D0BAF1010F01D14FF00209D1E9BF
:105A70000256082D00F29180092E34BF4FF4006CBD
:105A80004FF0000C4B68013B03F00F03002C43F078
:105A900080730CBF00244FF4807443EA0C0323434B
:105AA0000360CB7C0C7DBAF1050F14BF4FF00008EA
:105AB0004FF00208002B4B7C0CBF4FF0000E4FF054
:105AC000100E002B8B6984F0010B4FEA032404F4C1
:105AD00070644FEA0A6303F0407344EA0B0444EA3B
